{
    "contractName": "ProposalVote",
    "abi": [
        {
            "inputs": [],
            "name": "INHERIT_WI",
            "outputs": [
                {
                    "internalType": "bytes32",
                    "name": "",
                    "type": "bytes32"
                }
            ],
            "stateMutability": "view",
            "type": "function"
        },
        {
            "inputs": [],
            "name": "RANDOM_WI",
            "outputs": [
                {
                    "internalType": "bytes32",
                    "name": "",
                    "type": "bytes32"
                }
            ],
            "stateMutability": "view",
            "type": "function"
        },
        {
            "inputs": [],
            "name": "UNIFORM_WI",
            "outputs": [
                {
                    "internalType": "bytes32",
                    "name": "",
                    "type": "bytes32"
                }
            ],
            "stateMutability": "view",
            "type": "function"
        },
        {
            "inputs": [
                {
                    "internalType": "uint256",
                    "name": "proposalIndex",
                    "type": "uint256"
                },
                {
                    "internalType": "uint256",
                    "name": "_deposit",
                    "type": "uint256"
                }
            ],
            "name": "addFundsToProposal",
            "outputs": [],
            "stateMutability": "payable",
            "type": "function"
        },
        {
            "inputs": [],
            "name": "calculateAllDeposits",
            "outputs": [],
            "stateMutability": "view",
            "type": "function"
        },
        {
            "inputs": [],
            "name": "calculateHiddenVoters",
            "outputs": [],
            "stateMutability": "view",
            "type": "function"
        },
        {
            "inputs": [
                {
                    "internalType": "uint256",
                    "name": "proposalIndex",
                    "type": "uint256"
                }
            ],
            "name": "calculateInputVoters",
            "outputs": [],
            "stateMutability": "view",
            "type": "function"
        },
        {
            "inputs": [],
            "name": "calculateOutputVoters",
            "outputs": [],
            "stateMutability": "view",
            "type": "function"
        },
        {
            "inputs": [
                {
                    "internalType": "address",
                    "name": "_TokenAddress",
                    "type": "address"
                },
                {
                    "internalType": "uint256",
                    "name": "_deposit",
                    "type": "uint256"
                }
            ],
            "name": "createProposal",
            "outputs": [
                {
                    "internalType": "uint256",
                    "name": "",
                    "type": "uint256"
                }
            ],
            "stateMutability": "nonpayable",
            "type": "function"
        },
        {
            "inputs": [
                {
                    "internalType": "uint256",
                    "name": "proposalIndex",
                    "type": "uint256"
                },
                {
                    "internalType": "enum ProposalVote.VoteOption",
                    "name": "_vote",
                    "type": "uint8"
                },
                {
                    "internalType": "uint256",
                    "name": "_deposit",
                    "type": "uint256"
                },
                {
                    "internalType": "uint8",
                    "name": "_investmentPercent",
                    "type": "uint8"
                },
                {
                    "internalType": "uint256",
                    "name": "_buyTime",
                    "type": "uint256"
                },
                {
                    "internalType": "uint256",
                    "name": "_sellTime",
                    "type": "uint256"
                }
            ],
            "name": "decideOnAnalyzeProposal",
            "outputs": [],
            "stateMutability": "nonpayable",
            "type": "function"
        },
        {
            "inputs": [
                {
                    "internalType": "uint256",
                    "name": "proposalIndex",
                    "type": "uint256"
                }
            ],
            "name": "excuteProposalBuy",
            "outputs": [],
            "stateMutability": "nonpayable",
            "type": "function"
        },
        {
            "inputs": [
                {
                    "internalType": "uint256",
                    "name": "proposalIndex",
                    "type": "uint256"
                }
            ],
            "name": "excuteProposalSell",
            "outputs": [],
            "stateMutability": "nonpayable",
            "type": "function"
        },
        {
            "inputs": [
                {
                    "internalType": "uint256",
                    "name": "proposalIndex",
                    "type": "uint256"
                }
            ],
            "name": "getCurrentStage",
            "outputs": [
                {
                    "internalType": "enum ProposalVote.ProposalStage",
                    "name": "stage",
                    "type": "uint8"
                }
            ],
            "stateMutability": "view",
            "type": "function"
        },
        {
            "inputs": [],
            "name": "getHiddenNodes",
            "outputs": [
                {
                    "internalType": "address[]",
                    "name": "",
                    "type": "address[]"
                },
                {
                    "components": [
                        {
                            "internalType": "uint256",
                            "name": "initialWeight",
                            "type": "uint256"
                        },
                        {
                            "internalType": "uint256",
                            "name": "investmentWeight",
                            "type": "uint256"
                        }
                    ],
                    "internalType": "struct NodeMember.Weight[]",
                    "name": "",
                    "type": "tuple[]"
                }
            ],
            "stateMutability": "view",
            "type": "function"
        },
        {
            "inputs": [],
            "name": "getInputNodes",
            "outputs": [
                {
                    "internalType": "address[]",
                    "name": "",
                    "type": "address[]"
                },
                {
                    "components": [
                        {
                            "internalType": "uint256",
                            "name": "initialWeight",
                            "type": "uint256"
                        },
                        {
                            "internalType": "uint256",
                            "name": "investmentWeight",
                            "type": "uint256"
                        }
                    ],
                    "internalType": "struct NodeMember.Weight[]",
                    "name": "",
                    "type": "tuple[]"
                }
            ],
            "stateMutability": "view",
            "type": "function"
        },
        {
            "inputs": [],
            "name": "getLPNodes",
            "outputs": [
                {
                    "internalType": "address[]",
                    "name": "",
                    "type": "address[]"
                },
                {
                    "components": [
                        {
                            "internalType": "uint256",
                            "name": "initialWeight",
                            "type": "uint256"
                        },
                        {
                            "internalType": "uint256",
                            "name": "investmentWeight",
                            "type": "uint256"
                        }
                    ],
                    "internalType": "struct NodeMember.Weight[]",
                    "name": "",
                    "type": "tuple[]"
                }
            ],
            "stateMutability": "view",
            "type": "function"
        },
        {
            "inputs": [],
            "name": "getOutputNodes",
            "outputs": [
                {
                    "internalType": "address[]",
                    "name": "",
                    "type": "address[]"
                },
                {
                    "components": [
                        {
                            "internalType": "uint256",
                            "name": "initialWeight",
                            "type": "uint256"
                        },
                        {
                            "internalType": "uint256",
                            "name": "investmentWeight",
                            "type": "uint256"
                        }
                    ],
                    "internalType": "struct NodeMember.Weight[]",
                    "name": "",
                    "type": "tuple[]"
                }
            ],
            "stateMutability": "view",
            "type": "function"
        },
        {
            "inputs": [
                {
                    "internalType": "uint256",
                    "name": "",
                    "type": "uint256"
                }
            ],
            "name": "hiddenNodes",
            "outputs": [
                {
                    "internalType": "address",
                    "name": "",
                    "type": "address"
                }
            ],
            "stateMutability": "view",
            "type": "function"
        },
        {
            "inputs": [
                {
                    "internalType": "address",
                    "name": "",
                    "type": "address"
                }
            ],
            "name": "hiddenNodesWeight",
            "outputs": [
                {
                    "internalType": "uint256",
                    "name": "initialWeight",
                    "type": "uint256"
                },
                {
                    "internalType": "uint256",
                    "name": "investmentWeight",
                    "type": "uint256"
                }
            ],
            "stateMutability": "view",
            "type": "function"
        },
        {
            "inputs": [
                {
                    "internalType": "uint256",
                    "name": "",
                    "type": "uint256"
                }
            ],
            "name": "inputNodes",
            "outputs": [
                {
                    "internalType": "address",
                    "name": "",
                    "type": "address"
                }
            ],
            "stateMutability": "view",
            "type": "function"
        },
        {
            "inputs": [
                {
                    "internalType": "address",
                    "name": "",
                    "type": "address"
                }
            ],
            "name": "inputNodesWeight",
            "outputs": [
                {
                    "internalType": "uint256",
                    "name": "initialWeight",
                    "type": "uint256"
                },
                {
                    "internalType": "uint256",
                    "name": "investmentWeight",
                    "type": "uint256"
                }
            ],
            "stateMutability": "view",
            "type": "function"
        },
        {
            "inputs": [
                {
                    "internalType": "address",
                    "name": "node",
                    "type": "address"
                }
            ],
            "name": "isMember",
            "outputs": [
                {
                    "internalType": "bool",
                    "name": "result",
                    "type": "bool"
                }
            ],
            "stateMutability": "view",
            "type": "function"
        },
        {
            "inputs": [],
            "name": "joinAsHidden",
            "outputs": [],
            "stateMutability": "nonpayable",
            "type": "function"
        },
        {
            "inputs": [
                {
                    "internalType": "bytes32",
                    "name": "initializer",
                    "type": "bytes32"
                }
            ],
            "name": "joinAsHidden",
            "outputs": [],
            "stateMutability": "nonpayable",
            "type": "function"
        },
        {
            "inputs": [],
            "name": "joinAsInput",
            "outputs": [],
            "stateMutability": "nonpayable",
            "type": "function"
        },
        {
            "inputs": [
                {
                    "internalType": "bytes32",
                    "name": "initializer",
                    "type": "bytes32"
                }
            ],
            "name": "joinAsInput",
            "outputs": [],
            "stateMutability": "nonpayable",
            "type": "function"
        },
        {
            "inputs": [],
            "name": "joinAsLP",
            "outputs": [],
            "stateMutability": "nonpayable",
            "type": "function"
        },
        {
            "inputs": [
                {
                    "internalType": "bytes32",
                    "name": "initializer",
                    "type": "bytes32"
                }
            ],
            "name": "joinAsLP",
            "outputs": [],
            "stateMutability": "nonpayable",
            "type": "function"
        },
        {
            "inputs": [
                {
                    "internalType": "bytes32",
                    "name": "initializer",
                    "type": "bytes32"
                }
            ],
            "name": "joinAsOutput",
            "outputs": [],
            "stateMutability": "nonpayable",
            "type": "function"
        },
        {
            "inputs": [],
            "name": "joinAsOutput",
            "outputs": [],
            "stateMutability": "nonpayable",
            "type": "function"
        },
        {
            "inputs": [
                {
                    "internalType": "uint256",
                    "name": "",
                    "type": "uint256"
                }
            ],
            "name": "lpNodes",
            "outputs": [
                {
                    "internalType": "address",
                    "name": "",
                    "type": "address"
                }
            ],
            "stateMutability": "view",
            "type": "function"
        },
        {
            "inputs": [
                {
                    "internalType": "address",
                    "name": "",
                    "type": "address"
                }
            ],
            "name": "lpNodesWeight",
            "outputs": [
                {
                    "internalType": "uint256",
                    "name": "initialWeight",
                    "type": "uint256"
                },
                {
                    "internalType": "uint256",
                    "name": "investmentWeight",
                    "type": "uint256"
                }
            ],
            "stateMutability": "view",
            "type": "function"
        },
        {
            "inputs": [],
            "name": "numProposals",
            "outputs": [
                {
                    "internalType": "uint256",
                    "name": "",
                    "type": "uint256"
                }
            ],
            "stateMutability": "view",
            "type": "function"
        },
        {
            "inputs": [
                {
                    "internalType": "uint256",
                    "name": "",
                    "type": "uint256"
                }
            ],
            "name": "outputNodes",
            "outputs": [
                {
                    "internalType": "address",
                    "name": "",
                    "type": "address"
                }
            ],
            "stateMutability": "view",
            "type": "function"
        },
        {
            "inputs": [
                {
                    "internalType": "address",
                    "name": "",
                    "type": "address"
                }
            ],
            "name": "outputNodesWeight",
            "outputs": [
                {
                    "internalType": "uint256",
                    "name": "initialWeight",
                    "type": "uint256"
                },
                {
                    "internalType": "uint256",
                    "name": "investmentWeight",
                    "type": "uint256"
                }
            ],
            "stateMutability": "view",
            "type": "function"
        },
        {
            "inputs": [
                {
                    "internalType": "uint256",
                    "name": "",
                    "type": "uint256"
                }
            ],
            "name": "proposals",
            "outputs": [
                {
                    "internalType": "address",
                    "name": "TokenAddress",
                    "type": "address"
                },
                {
                    "internalType": "uint256",
                    "name": "buyTime",
                    "type": "uint256"
                },
                {
                    "internalType": "uint256",
                    "name": "sellTime",
                    "type": "uint256"
                },
                {
                    "internalType": "uint256",
                    "name": "inputVotersDDL",
                    "type": "uint256"
                },
                {
                    "internalType": "uint256",
                    "name": "hiddenVotersDDL",
                    "type": "uint256"
                },
                {
                    "internalType": "uint256",
                    "name": "outputVotersDDL",
                    "type": "uint256"
                },
                {
                    "internalType": "uint256",
                    "name": "totalDeposit",
                    "type": "uint256"
                },
                {
                    "internalType": "bool",
                    "name": "executed",
                    "type": "bool"
                }
            ],
            "stateMutability": "view",
            "type": "function"
        },
        {
            "inputs": [
                {
                    "internalType": "uint256",
                    "name": "proposalIndex",
                    "type": "uint256"
                },
                {
                    "internalType": "enum ProposalVote.VoteOption",
                    "name": "_vote",
                    "type": "uint8"
                },
                {
                    "internalType": "uint256",
                    "name": "_deposit",
                    "type": "uint256"
                },
                {
                    "internalType": "string",
                    "name": "_analysis",
                    "type": "string"
                }
            ],
            "name": "voteOnAnalyzeProposal",
            "outputs": [],
            "stateMutability": "nonpayable",
            "type": "function"
        },
        {
            "inputs": [
                {
                    "internalType": "uint256",
                    "name": "proposalIndex",
                    "type": "uint256"
                },
                {
                    "internalType": "enum ProposalVote.VoteOption",
                    "name": "_vote",
                    "type": "uint8"
                },
                {
                    "internalType": "uint256",
                    "name": "_deposit",
                    "type": "uint256"
                },
                {
                    "internalType": "string",
                    "name": "_info",
                    "type": "string"
                }
            ],
            "name": "voteOnCreatingProposal",
            "outputs": [],
            "stateMutability": "nonpayable",
            "type": "function"
        },
        {
            "stateMutability": "payable",
            "type": "receive"
        }
    ],
    "bytecode": "608060405234801561001057600080fd5b5061228a806100206000396000f3fe6080604052600436106102295760003560e01c806365b55e1111610123578063acdefb0b116100ab578063d8218b9b1161006f578063d8218b9b14610876578063dde3a84a14610896578063dfc51a25146108ab578063ed301755146108cb578063f00b9166146108eb57600080fd5b8063acdefb0b14610604578063bc251d15146107ba578063bd69f4cb14610604578063c445de20146107ee578063c4ee80a11461085657600080fd5b8063961324cb116100f2578063961324cb146106e25780639b8da59a146107025780639ec353ff14610736578063a230c52414610756578063abe961601461078657600080fd5b806365b55e111461066d57806367b2cd071461068f57806375c76e64146106af5780639121fefb146106cf57600080fd5b80632ab4eb69116101b15780635110a792116101755780635110a792146105a657806352db0609146105bb578063571f32f2146106045780635bc1e393146106195780635cf364861461063957600080fd5b80632ab4eb691461047d5780632b00e8bf1461049d57806331490671146104c0578063400e394914610528578063427b98f91461053e57600080fd5b806316dc5081116101f857806316dc5081146103665780631eb24d5b146103a8578063225ceb68146103c85780632458d4721461043057806324c1d4b61461045d57600080fd5b8063013cf08b1461023557806305396734146102ec578063062f1d08146103245780630e5801671461034657600080fd5b3661023057005b600080fd5b34801561024157600080fd5b506102a0610250366004611d12565b600860205260009081526040902080546001820154600283015460038401546004850154600586015460068701546007909701546001600160a01b03909616969495939492939192909160ff1688565b604080516001600160a01b0390991689526020890197909752958701949094526060860192909252608085015260a084015260c0830152151560e0820152610100015b60405180910390f35b3480156102f857600080fd5b5061030c610307366004611d12565b610900565b6040516001600160a01b0390911681526020016102e3565b34801561033057600080fd5b5061034461033f366004611d12565b61092a565b005b34801561035257600080fd5b50610344610361366004611d12565b610999565b34801561037257600080fd5b5061039a7f027fd5d3d754ba95e5cb1bcffa8cc51dc1efaa478230bc3f1314147a1ea912e381565b6040519081526020016102e3565b3480156103b457600080fd5b5061030c6103c3366004611d12565b610abe565b3480156103d457600080fd5b506103446007805460018181019092557fa66cc928b5edb82af9bd49922954155ab7b0942694bea4ce44661d9a8736c6880180546001600160a01b03191633908117909155600090815260036020526040812082815590910155565b34801561043c57600080fd5b5061045061044b366004611d12565b610ace565b6040516102e39190611d41565b34801561046957600080fd5b50610344610478366004611d78565b610b57565b34801561048957600080fd5b50610344610498366004611d12565b610d61565b3480156104a957600080fd5b506104b2610dcf565b6040516102e3929190611dd8565b3480156104cc57600080fd5b506103446004805460018181019092557f8a35acfbc15ff81a39ae7d344fd709f28e8600b4aa8c65c6b64bfe7fe36bd19b0180546001600160a01b03191633908117909155600090815260208190526040812082815590910155565b34801561053457600080fd5b5061039a60095481565b34801561054a57600080fd5b506103446006805460018181019092557ff652222313e28459528d920b65115c16c04f3efc82aaedc97be59f3f377c0d3f0180546001600160a01b03191633908117909155600090815260026020526040812082815590910155565b3480156105b257600080fd5b506104b2610f37565b3480156105c757600080fd5b506105ef6105d6366004611e7e565b6000602081905290815260409020805460019091015482565b604080519283526020830191909152016102e3565b34801561061057600080fd5b5061034461109d565b34801561062557600080fd5b5061030c610634366004611d12565b611154565b34801561064557600080fd5b506105ef610654366004611e7e565b6002602052600090815260409020805460019091015482565b34801561067957600080fd5b5061039a60008051602061223583398151915281565b34801561069b57600080fd5b506103446106aa366004611d12565b611164565b3480156106bb57600080fd5b506103446106ca366004611eb6565b6111e7565b6103446106dd366004611f8b565b6113f4565b3480156106ee57600080fd5b506103446106fd366004611d12565b6114f5565b34801561070e57600080fd5b506105ef61071d366004611e7e565b6003602052600090815260409020805460019091015482565b34801561074257600080fd5b5061030c610751366004611d12565b6115c1565b34801561076257600080fd5b50610776610771366004611e7e565b6115d1565b60405190151581526020016102e3565b34801561079257600080fd5b506105ef6107a1366004611e7e565b6001602081905260009182526040909120805491015482565b3480156107c657600080fd5b5061039a7f0fae42b8972724c710d85c196a1f95372dc67ee20841b2a1c29c76a8d697b63281565b3480156107fa57600080fd5b506103446005805460018181019092557f036b6384b5eca791c62761152d0c79bb0604c104a5fb6f4eb0703f3154bb3db00180546001600160a01b03191633908117909155600090815260208290526040812082815590910155565b34801561086257600080fd5b50610344610871366004611d12565b611658565b34801561088257600080fd5b50610344610891366004611d12565b6116c6565b3480156108a257600080fd5b506104b2611734565b3480156108b757600080fd5b5061039a6108c6366004611fad565b611899565b3480156108d757600080fd5b506103446108e6366004611eb6565b6119a1565b3480156108f757600080fd5b506104b2611bac565b6007818154811061091057600080fd5b6000918252602090912001546001600160a01b0316905081565b6000805160206122358339815191528103610996576006805460018181019092557ff652222313e28459528d920b65115c16c04f3efc82aaedc97be59f3f377c0d3f0180546001600160a01b031916339081179091556000908152600260205260408120828155909101555b50565b336000818152602081905260409020541515806109cd57506001600160a01b03811660009081526001602052604090205415155b806109ef57506001600160a01b03811660009081526002602052604090205415155b80610a1157506001600160a01b03811660009081526003602052604090205415155b610a555760405162461bcd60e51b815260206004820152601060248201526f26bab9ba10313290309026b2b6b132b960811b60448201526064015b60405180910390fd5b60005b600454811015610ab957600060048281548110610a7757610a77611fd7565b600091825260208083209091015460095483526008808352604084206001600160a01b0390921690935290910190525080610ab181612003565b915050610a58565b505050565b6006818154811061091057600080fd5b600081815260086020526040812060030154421015610aef57506000919050565b600082815260086020526040902060040154421015610b1057506001919050565b600082815260086020526040902060050154421015610b3157506002919050565b600082815260086020526040902060010154421015610b5257506003919050565b919050565b60008681526008602052604090206001015486904210610b895760405162461bcd60e51b8152600401610a4c9061201c565b336000818152600260205260408120549003610be75760405162461bcd60e51b815260206004820152601760248201527f4d7573742062652061204f7574707574204d656d6265720000000000000000006044820152606401610a4c565b6000888152600860209081526040808320338452600a810190925290912054158015610c395750336000908152600a8201602052604081206001015460ff166002811115610c3757610c37611d2b565b145b610c555760405162461bcd60e51b8152600401610a4c90612047565b6000886002811115610c6957610c69611d2b565b03610c935760008711610c8e5760405162461bcd60e51b8152600401610a4c9061206a565b610cea565b6002886002811115610ca757610ca7611d2b565b03610cca578615610c8e5760405162461bcd60e51b8152600401610a4c906120a1565b60008711610cea5760405162461bcd60e51b8152600401610a4c9061206a565b336000908152600a820160205260409020878155600190810180548a9260ff1990911690836002811115610d2057610d20611d2b565b0217905550336000908152600a90910160205260409020600281019490945550506003820155600401805460ff90921660ff19909216919091179055505050565b6000805160206122358339815191528103610996576007805460018181019092557fa66cc928b5edb82af9bd49922954155ab7b0942694bea4ce44661d9a8736c6880180546001600160a01b0319163390811790915560009081526003602052604081208281559091015550565b606080600060058054905067ffffffffffffffff811115610df257610df2611ea0565b604051908082528060200260200182016040528015610e3757816020015b6040805180820190915260008082526020820152815260200190600190039081610e105790505b50905060005b600554811015610ece576001600060058381548110610e5e57610e5e611fd7565b60009182526020808320909101546001600160a01b03168352828101939093526040918201902081518083019092528054825260010154918101919091528251839083908110610eb057610eb0611fd7565b60200260200101819052508080610ec690612003565b915050610e3d565b5060058181805480602002602001604051908101604052809291908181526020018280548015610f2757602002820191906000526020600020905b81546001600160a01b03168152600190910190602001808311610f09575b5050505050915092509250509091565b606080600060068054905067ffffffffffffffff811115610f5a57610f5a611ea0565b604051908082528060200260200182016040528015610f9f57816020015b6040805180820190915260008082526020820152815260200190600190039081610f785790505b50905060005b600654811015611036576002600060068381548110610fc657610fc6611fd7565b60009182526020808320909101546001600160a01b0316835282810193909352604091820190208151808301909252805482526001015491810191909152825183908390811061101857611018611fd7565b6020026020010181905250808061102e90612003565b915050610fa5565b5060068181805480602002602001604051908101604052809291908181526020018280548015610f27576020028201919060005260206000209081546001600160a01b03168152600190910190602001808311610f09575050505050915092509250509091565b336000818152602081905260409020541515806110d157506001600160a01b03811660009081526001602052604090205415155b806110f357506001600160a01b03811660009081526002602052604090205415155b8061111557506001600160a01b03811660009081526003602052604090205415155b6109965760405162461bcd60e51b815260206004820152601060248201526f26bab9ba10313290309026b2b6b132b960811b6044820152606401610a4c565b6005818154811061091057600080fd5b600081815260086020526040902060010154819042106111965760405162461bcd60e51b8152600401610a4c9061201c565b600082815260086020526040902060028101544211610ab95760405162461bcd60e51b815260206004820152600d60248201526c14995858da081d1bc81cd95b1b609a1b6044820152606401610a4c565b600084815260086020526040902060010154849042106112195760405162461bcd60e51b8152600401610a4c9061201c565b3360008181526020819052604081205490036112705760405162461bcd60e51b815260206004820152601660248201527526bab9ba10313290309024b7383aba1026b2b6b132b960511b6044820152606401610a4c565b6000868152600860208181526040808420338552928301909152909120600201805461129b906120ce565b1590506112ba5760405162461bcd60e51b8152600401610a4c90612047565b60008660028111156112ce576112ce611d2b565b0361131957600085116112f35760405162461bcd60e51b8152600401610a4c9061206a565b60008451116113145760405162461bcd60e51b8152600401610a4c9061206a565b611391565b600286600281111561132d5761132d611d2b565b036113505784156112f35760405162461bcd60e51b8152600401610a4c906120a1565b600085116113705760405162461bcd60e51b8152600401610a4c9061206a565b60008451116113915760405162461bcd60e51b8152600401610a4c9061206a565b336000908152600882016020526040902085815560019081018054889260ff19909116908360028111156113c7576113c7611d2b565b021790555033600090815260088201602052604090206002016113ea858261214e565b5050505050505050565b600082815260086020526040902060010154829042106114265760405162461bcd60e51b8152600401610a4c9061201c565b33600081815260036020526040812054900361147a5760405162461bcd60e51b815260206004820152601360248201527226bab9ba10313290309026281026b2b6b132b960691b6044820152606401610a4c565b333183106114be5760405162461bcd60e51b81526020600482015260116024820152704e6f7420656e6f75676874206d6f6e657960781b6044820152606401610a4c565b6040513090819085156108fc029086906000818181858888f193505050501580156114ed573d6000803e3d6000fd5b505050505050565b600081815260086020526040902060010154819042106115275760405162461bcd60e51b8152600401610a4c9061201c565b60008281526008602052604090206001810154421161157d5760405162461bcd60e51b81526020600482015260126024820152714e6f74207265616368207468652074696d6560701b6044820152606401610a4c565b80600201544210610ab95760405162461bcd60e51b815260206004820152600e60248201526d10d85b9b9bdd081d1bc81cd95b1b60921b6044820152606401610a4c565b6004818154811061091057600080fd5b6001600160a01b03811660009081526020819052604081205415158061160e57506001600160a01b03821660009081526001602052604090205415155b8061163057506001600160a01b03821660009081526002602052604090205415155b8061165257506001600160a01b03821660009081526003602052604090205415155b92915050565b6000805160206122358339815191528103610996576004805460018181019092557f8a35acfbc15ff81a39ae7d344fd709f28e8600b4aa8c65c6b64bfe7fe36bd19b0180546001600160a01b0319163390811790915560009081526020819052604081208281559091015550565b6000805160206122358339815191528103610996576005805460018181019092557f036b6384b5eca791c62761152d0c79bb0604c104a5fb6f4eb0703f3154bb3db00180546001600160a01b0319163390811790915560009081526020829052604081208281559091015550565b606080600060048054905067ffffffffffffffff81111561175757611757611ea0565b60405190808252806020026020018201604052801561179c57816020015b60408051808201909152600080825260208201528152602001906001900390816117755790505b50905060005b60045481101561183257600080600483815481106117c2576117c2611fd7565b60009182526020808320909101546001600160a01b0316835282810193909352604091820190208151808301909252805482526001015491810191909152825183908390811061181457611814611fd7565b6020026020010181905250808061182a90612003565b9150506117a2565b5060048181805480602002602001604051908101604052809291908181526020018280548015610f27576020028201919060005260206000209081546001600160a01b03168152600190910190602001808311610f09575050505050915092509250509091565b3360008181526020819052604081205490919082036118f35760405162461bcd60e51b815260206004820152601660248201527526bab9ba10313290309024b7383aba1026b2b6b132b960511b6044820152606401610a4c565b600a8310156119395760405162461bcd60e51b8152602060048201526012602482015271088cae0dee6d2e8be9cdee8be8adcdeeaced60731b6044820152606401610a4c565b600954600090815260086020526040902080546001600160a01b0319166001600160a01b03861617815561196f4261177061220e565b60058201556009805490600061198483612003565b919050555060016009546119989190612221565b95945050505050565b600084815260086020526040902060010154849042106119d35760405162461bcd60e51b8152600401610a4c9061201c565b336000818152600160205260408120549003611a315760405162461bcd60e51b815260206004820152601760248201527f4d75737420626520612048696464656e204d656d6265720000000000000000006044820152606401610a4c565b6000868152600860209081526040808320338452600981019092529091206002018054611a5d906120ce565b159050611a7c5760405162461bcd60e51b8152600401610a4c90612047565b6000866002811115611a9057611a90611d2b565b03611adb5760008511611ab55760405162461bcd60e51b8152600401610a4c9061206a565b6000845111611ad65760405162461bcd60e51b8152600401610a4c9061206a565b611b53565b6002866002811115611aef57611aef611d2b565b03611b12578415611ab55760405162461bcd60e51b8152600401610a4c906120a1565b60008511611b325760405162461bcd60e51b8152600401610a4c9061206a565b6000845111611b535760405162461bcd60e51b8152600401610a4c9061206a565b336000908152600982016020526040902085815560019081018054889260ff1990911690836002811115611b8957611b89611d2b565b021790555033600090815260098201602052604090206002016113ea858261214e565b606080600060078054905067ffffffffffffffff811115611bcf57611bcf611ea0565b604051908082528060200260200182016040528015611c1457816020015b6040805180820190915260008082526020820152815260200190600190039081611bed5790505b50905060005b600754811015611cab576003600060078381548110611c3b57611c3b611fd7565b60009182526020808320909101546001600160a01b03168352828101939093526040918201902081518083019092528054825260010154918101919091528251839083908110611c8d57611c8d611fd7565b60200260200101819052508080611ca390612003565b915050611c1a565b5060078181805480602002602001604051908101604052809291908181526020018280548015610f27576020028201919060005260206000209081546001600160a01b03168152600190910190602001808311610f09575050505050915092509250509091565b600060208284031215611d2457600080fd5b5035919050565b634e487b7160e01b600052602160045260246000fd5b6020810160048310611d6357634e487b7160e01b600052602160045260246000fd5b91905290565b803560038110610b5257600080fd5b60008060008060008060c08789031215611d9157600080fd5b86359550611da160208801611d69565b945060408701359350606087013560ff81168114611dbe57600080fd5b9598949750929560808101359460a0909101359350915050565b60408082528351828201819052600091906020906060850190828801855b82811015611e1b5781516001600160a01b031684529284019290840190600101611df6565b5050508481038286015285518082528683019183019060005b81811015611e5957835180518452850151858401529284019291850191600101611e34565b509098975050505050505050565b80356001600160a01b0381168114610b5257600080fd5b600060208284031215611e9057600080fd5b611e9982611e67565b9392505050565b634e487b7160e01b600052604160045260246000fd5b60008060008060808587031215611ecc57600080fd5b84359350611edc60208601611d69565b925060408501359150606085013567ffffffffffffffff80821115611f0057600080fd5b818701915087601f830112611f1457600080fd5b813581811115611f2657611f26611ea0565b604051601f8201601f19908116603f01168101908382118183101715611f4e57611f4e611ea0565b816040528281528a6020848701011115611f6757600080fd5b82602086016020830137600060208483010152809550505050505092959194509250565b60008060408385031215611f9e57600080fd5b50508035926020909101359150565b60008060408385031215611fc057600080fd5b611fc983611e67565b946020939093013593505050565b634e487b7160e01b600052603260045260246000fd5b634e487b7160e01b600052601160045260246000fd5b60006001820161201557612015611fed565b5060010190565b602080825260119082015270111150511312539157d15610d151511151607a1b604082015260600190565b6020808252600990820152681393d517d593d5115160ba1b604082015260600190565b6020808252601a908201527f4465706f7369745f4d7573745f477265617465725f5468616e30000000000000604082015260600190565b60208082526013908201527204465706f7369745f4d7573745f457175616c3606c1b604082015260600190565b600181811c908216806120e257607f821691505b60208210810361210257634e487b7160e01b600052602260045260246000fd5b50919050565b601f821115610ab957600081815260208120601f850160051c8101602086101561212f5750805b601f850160051c820191505b818110156114ed5782815560010161213b565b815167ffffffffffffffff81111561216857612168611ea0565b61217c8161217684546120ce565b84612108565b602080601f8311600181146121b157600084156121995750858301515b600019600386901b1c1916600185901b1785556114ed565b600085815260208120601f198616915b828110156121e0578886015182559484019460019091019084016121c1565b50858210156121fe5787850151600019600388901b60f8161c191681555b5050505050600190811b01905550565b8082018082111561165257611652611fed565b8181038181111561165257611652611fed56fe614bbd8312ff2975750a68cf7818b14489d2f1741c93d4605798381eb14294aba2646970667358221220e9908abadd3fe556697b3ad23b776c6365e8feeec659d0f57b4e891679c47a3864736f6c63430008130033",
    "sourcePath": "c:/Users/Jupiter/Desktop/NeuralDAO/Development/Contract/contracts/ProposalVote.sol",
    "compiler": {
        "name": "solc",
        "version": "0.8.19+commit.7dd6d404"
    },
    "functionHashes": {
        "INHERIT_WI()": "16dc5081",
        "RANDOM_WI()": "bc251d15",
        "UNIFORM_WI()": "65b55e11",
        "addFundsToProposal(uint256,uint256)": "9121fefb",
        "calculateAllDeposits()": "571f32f2",
        "calculateHiddenVoters()": "bd69f4cb",
        "calculateInputVoters(uint256)": "0e580167",
        "calculateOutputVoters()": "acdefb0b",
        "createProposal(address,uint256)": "dfc51a25",
        "decideOnAnalyzeProposal(uint256,uint8,uint256,uint8,uint256,uint256)": "24c1d4b6",
        "excuteProposalBuy(uint256)": "961324cb",
        "excuteProposalSell(uint256)": "67b2cd07",
        "getCurrentStage(uint256)": "2458d472",
        "getHiddenNodes()": "2b00e8bf",
        "getInputNodes()": "dde3a84a",
        "getLPNodes()": "f00b9166",
        "getOutputNodes()": "5110a792",
        "hiddenNodes(uint256)": "5bc1e393",
        "hiddenNodesWeight(address)": "abe96160",
        "inputNodes(uint256)": "9ec353ff",
        "inputNodesWeight(address)": "52db0609",
        "isMember(address)": "a230c524",
        "joinAsHidden()": "c445de20",
        "joinAsHidden(bytes32)": "d8218b9b",
        "joinAsInput()": "31490671",
        "joinAsInput(bytes32)": "c4ee80a1",
        "joinAsLP()": "225ceb68",
        "joinAsLP(bytes32)": "2ab4eb69",
        "joinAsOutput()": "427b98f9",
        "joinAsOutput(bytes32)": "062f1d08",
        "lpNodes(uint256)": "05396734",
        "lpNodesWeight(address)": "9b8da59a",
        "numProposals()": "400e3949",
        "outputNodes(uint256)": "1eb24d5b",
        "outputNodesWeight(address)": "5cf36486",
        "proposals(uint256)": "013cf08b",
        "voteOnAnalyzeProposal(uint256,uint8,uint256,string)": "ed301755",
        "voteOnCreatingProposal(uint256,uint8,uint256,string)": "75c76e64"
    },
    "gasEstimates": {
        "creation": {
            "codeDepositCost": "1768400",
            "executionCost": "1862",
            "totalCost": "1770262"
        },
        "external": {
            "INHERIT_WI()": "241",
            "RANDOM_WI()": "262",
            "UNIFORM_WI()": "infinite",
            "addFundsToProposal(uint256,uint256)": "infinite",
            "calculateAllDeposits()": "9185",
            "calculateHiddenVoters()": "9185",
            "calculateInputVoters(uint256)": "infinite",
            "calculateOutputVoters()": "9141",
            "createProposal(address,uint256)": "infinite",
            "decideOnAnalyzeProposal(uint256,uint8,uint256,uint8,uint256,uint256)": "124624",
            "excuteProposalBuy(uint256)": "6904",
            "excuteProposalSell(uint256)": "4799",
            "getCurrentStage(uint256)": "9237",
            "getHiddenNodes()": "infinite",
            "getInputNodes()": "infinite",
            "getLPNodes()": "infinite",
            "getOutputNodes()": "infinite",
            "hiddenNodes(uint256)": "4725",
            "hiddenNodesWeight(address)": "4794",
            "inputNodes(uint256)": "4703",
            "inputNodesWeight(address)": "4728",
            "isMember(address)": "9330",
            "joinAsHidden()": "75901",
            "joinAsHidden(bytes32)": "75980",
            "joinAsInput()": "75880",
            "joinAsInput(bytes32)": "76069",
            "joinAsLP()": "75877",
            "joinAsLP(bytes32)": "75979",
            "joinAsOutput()": "75921",
            "joinAsOutput(bytes32)": "76025",
            "lpNodes(uint256)": "4683",
            "lpNodesWeight(address)": "4725",
            "numProposals()": "2407",
            "outputNodes(uint256)": "4682",
            "outputNodesWeight(address)": "4791",
            "proposals(uint256)": "17468",
            "voteOnAnalyzeProposal(uint256,uint8,uint256,string)": "infinite",
            "voteOnCreatingProposal(uint256,uint8,uint256,string)": "infinite"
        }
    }
}