{
  "_format": "hh-sol-artifact-1",
  "contractName": "NeuroDAO",
  "sourceName": "contracts/NeuroDAO.sol",
  "abi": [
    {
      "inputs": [
        {
          "internalType": "address",
          "name": "_owner",
          "type": "address"
        },
        {
          "internalType": "string",
          "name": "_name",
          "type": "string"
        },
        {
          "internalType": "string",
          "name": "_description_cid",
          "type": "string"
        },
        {
          "internalType": "string",
          "name": "_tokenName",
          "type": "string"
        },
        {
          "internalType": "string",
          "name": "_tokenSymbol",
          "type": "string"
        },
        {
          "internalType": "address",
          "name": "_factoryAddress",
          "type": "address"
        },
        {
          "internalType": "uint8",
          "name": "_layersNum",
          "type": "uint8"
        },
        {
          "internalType": "uint8",
          "name": "_inputNodesNum",
          "type": "uint8"
        },
        {
          "internalType": "uint8",
          "name": "_hiddenNodesNum",
          "type": "uint8"
        },
        {
          "internalType": "uint8",
          "name": "_outputNodesNum",
          "type": "uint8"
        },
        {
          "internalType": "bool",
          "name": "_responsibilityOverlap",
          "type": "bool"
        }
      ],
      "stateMutability": "nonpayable",
      "type": "constructor"
    },
    {
      "inputs": [],
      "name": "AbstainCannotDeposit",
      "type": "error"
    },
    {
      "inputs": [],
      "name": "CannotDepositAfterBuyExcuted",
      "type": "error"
    },
    {
      "inputs": [],
      "name": "HiddenDecisionStage",
      "type": "error"
    },
    {
      "inputs": [],
      "name": "InputDecisionStage",
      "type": "error"
    },
    {
      "inputs": [],
      "name": "NoInfo",
      "type": "error"
    },
    {
      "inputs": [],
      "name": "NotActiveProposal",
      "type": "error"
    },
    {
      "inputs": [],
      "name": "NotEnoughDeposit",
      "type": "error"
    },
    {
      "inputs": [],
      "name": "NotFactoryAddress",
      "type": "error"
    },
    {
      "inputs": [],
      "name": "NotHiddenNode",
      "type": "error"
    },
    {
      "inputs": [],
      "name": "NotInputNode",
      "type": "error"
    },
    {
      "inputs": [],
      "name": "NotLpNode",
      "type": "error"
    },
    {
      "inputs": [],
      "name": "NotMember",
      "type": "error"
    },
    {
      "inputs": [],
      "name": "NotOutputNode",
      "type": "error"
    },
    {
      "inputs": [],
      "name": "NotReachTheTime",
      "type": "error"
    },
    {
      "inputs": [],
      "name": "NotSufficientFund",
      "type": "error"
    },
    {
      "inputs": [],
      "name": "NotSufficientStake",
      "type": "error"
    },
    {
      "inputs": [],
      "name": "OutputDecisionStage",
      "type": "error"
    },
    {
      "inputs": [],
      "name": "Voted",
      "type": "error"
    },
    {
      "inputs": [],
      "name": "DAOtokenAddress",
      "outputs": [
        {
          "internalType": "address",
          "name": "",
          "type": "address"
        }
      ],
      "stateMutability": "view",
      "type": "function"
    },
    {
      "inputs": [
        {
          "internalType": "uint256",
          "name": "proposalIndex",
          "type": "uint256"
        },
        {
          "internalType": "uint256",
          "name": "_deposit",
          "type": "uint256"
        }
      ],
      "name": "addFundsToProposal",
      "outputs": [],
      "stateMutability": "payable",
      "type": "function"
    },
    {
      "inputs": [
        {
          "internalType": "uint256",
          "name": "_amount",
          "type": "uint256"
        }
      ],
      "name": "burnToGetBackFund",
      "outputs": [],
      "stateMutability": "nonpayable",
      "type": "function"
    },
    {
      "inputs": [
        {
          "internalType": "uint256",
          "name": "proposalIndex",
          "type": "uint256"
        }
      ],
      "name": "calculateHiddenVoters",
      "outputs": [
        {
          "internalType": "int256",
          "name": "",
          "type": "int256"
        }
      ],
      "stateMutability": "view",
      "type": "function"
    },
    {
      "inputs": [
        {
          "internalType": "uint256",
          "name": "proposalIndex",
          "type": "uint256"
        }
      ],
      "name": "calculateInputVoters",
      "outputs": [
        {
          "internalType": "int256",
          "name": "",
          "type": "int256"
        }
      ],
      "stateMutability": "view",
      "type": "function"
    },
    {
      "inputs": [
        {
          "internalType": "uint256",
          "name": "proposalIndex",
          "type": "uint256"
        }
      ],
      "name": "calculateOutputVoters",
      "outputs": [
        {
          "internalType": "int256",
          "name": "",
          "type": "int256"
        }
      ],
      "stateMutability": "view",
      "type": "function"
    },
    {
      "inputs": [
        {
          "internalType": "address",
          "name": "_TokenAddress",
          "type": "address"
        },
        {
          "internalType": "uint256",
          "name": "_deposit",
          "type": "uint256"
        },
        {
          "internalType": "uint256",
          "name": "_buyTime",
          "type": "uint256"
        },
        {
          "internalType": "uint256",
          "name": "_sellTime",
          "type": "uint256"
        },
        {
          "internalType": "uint256",
          "name": "_decisionTimeInMins",
          "type": "uint256"
        }
      ],
      "name": "createProposal",
      "outputs": [
        {
          "internalType": "uint256",
          "name": "",
          "type": "uint256"
        }
      ],
      "stateMutability": "nonpayable",
      "type": "function"
    },
    {
      "inputs": [
        {
          "internalType": "uint256",
          "name": "proposalIndex",
          "type": "uint256"
        },
        {
          "internalType": "enum ProposalVote.VoteOption",
          "name": "_vote",
          "type": "uint8"
        },
        {
          "internalType": "uint256",
          "name": "_deposit",
          "type": "uint256"
        }
      ],
      "name": "decideOnAnalyzeProposal",
      "outputs": [],
      "stateMutability": "nonpayable",
      "type": "function"
    },
    {
      "inputs": [],
      "name": "description_cid",
      "outputs": [
        {
          "internalType": "string",
          "name": "",
          "type": "string"
        }
      ],
      "stateMutability": "view",
      "type": "function"
    },
    {
      "inputs": [
        {
          "internalType": "uint256",
          "name": "proposalIndex",
          "type": "uint256"
        }
      ],
      "name": "excuteProposalBuy",
      "outputs": [],
      "stateMutability": "nonpayable",
      "type": "function"
    },
    {
      "inputs": [
        {
          "internalType": "uint256",
          "name": "proposalIndex",
          "type": "uint256"
        }
      ],
      "name": "excuteProposalSell",
      "outputs": [],
      "stateMutability": "nonpayable",
      "type": "function"
    },
    {
      "inputs": [],
      "name": "factoryAddress",
      "outputs": [
        {
          "internalType": "address",
          "name": "",
          "type": "address"
        }
      ],
      "stateMutability": "view",
      "type": "function"
    },
    {
      "inputs": [
        {
          "internalType": "uint256",
          "name": "proposalIndex",
          "type": "uint256"
        }
      ],
      "name": "getCurrentStage",
      "outputs": [
        {
          "internalType": "enum ProposalVote.ProposalStage",
          "name": "stage",
          "type": "uint8"
        }
      ],
      "stateMutability": "view",
      "type": "function"
    },
    {
      "inputs": [],
      "name": "getFundBalance",
      "outputs": [
        {
          "internalType": "uint256",
          "name": "",
          "type": "uint256"
        }
      ],
      "stateMutability": "view",
      "type": "function"
    },
    {
      "inputs": [],
      "name": "getHiddenNodes",
      "outputs": [
        {
          "internalType": "address[]",
          "name": "",
          "type": "address[]"
        }
      ],
      "stateMutability": "view",
      "type": "function"
    },
    {
      "inputs": [],
      "name": "getInputNodes",
      "outputs": [
        {
          "internalType": "address[]",
          "name": "",
          "type": "address[]"
        }
      ],
      "stateMutability": "view",
      "type": "function"
    },
    {
      "inputs": [],
      "name": "getLPNodes",
      "outputs": [
        {
          "internalType": "address[]",
          "name": "",
          "type": "address[]"
        }
      ],
      "stateMutability": "view",
      "type": "function"
    },
    {
      "inputs": [],
      "name": "getOutputNodes",
      "outputs": [
        {
          "internalType": "address[]",
          "name": "",
          "type": "address[]"
        }
      ],
      "stateMutability": "view",
      "type": "function"
    },
    {
      "inputs": [
        {
          "internalType": "uint256",
          "name": "",
          "type": "uint256"
        }
      ],
      "name": "hiddenNodes",
      "outputs": [
        {
          "internalType": "address",
          "name": "",
          "type": "address"
        }
      ],
      "stateMutability": "view",
      "type": "function"
    },
    {
      "inputs": [],
      "name": "hiddenNodesNum",
      "outputs": [
        {
          "internalType": "uint8",
          "name": "",
          "type": "uint8"
        }
      ],
      "stateMutability": "view",
      "type": "function"
    },
    {
      "inputs": [
        {
          "internalType": "address",
          "name": "",
          "type": "address"
        }
      ],
      "name": "hiddenNodesWeight",
      "outputs": [
        {
          "internalType": "uint256",
          "name": "initialWeight",
          "type": "uint256"
        },
        {
          "internalType": "uint256",
          "name": "investmentWeight",
          "type": "uint256"
        }
      ],
      "stateMutability": "view",
      "type": "function"
    },
    {
      "inputs": [
        {
          "internalType": "uint256",
          "name": "",
          "type": "uint256"
        }
      ],
      "name": "inputNodes",
      "outputs": [
        {
          "internalType": "address",
          "name": "",
          "type": "address"
        }
      ],
      "stateMutability": "view",
      "type": "function"
    },
    {
      "inputs": [],
      "name": "inputNodesNum",
      "outputs": [
        {
          "internalType": "uint8",
          "name": "",
          "type": "uint8"
        }
      ],
      "stateMutability": "view",
      "type": "function"
    },
    {
      "inputs": [
        {
          "internalType": "address",
          "name": "",
          "type": "address"
        }
      ],
      "name": "inputNodesWeight",
      "outputs": [
        {
          "internalType": "uint256",
          "name": "initialWeight",
          "type": "uint256"
        },
        {
          "internalType": "uint256",
          "name": "investmentWeight",
          "type": "uint256"
        }
      ],
      "stateMutability": "view",
      "type": "function"
    },
    {
      "inputs": [
        {
          "internalType": "address",
          "name": "node",
          "type": "address"
        }
      ],
      "name": "isMember",
      "outputs": [
        {
          "internalType": "bool",
          "name": "result",
          "type": "bool"
        }
      ],
      "stateMutability": "view",
      "type": "function"
    },
    {
      "inputs": [
        {
          "internalType": "address",
          "name": "node",
          "type": "address"
        }
      ],
      "name": "joinAsHidden",
      "outputs": [],
      "stateMutability": "nonpayable",
      "type": "function"
    },
    {
      "inputs": [
        {
          "internalType": "address",
          "name": "node",
          "type": "address"
        }
      ],
      "name": "joinAsInput",
      "outputs": [],
      "stateMutability": "nonpayable",
      "type": "function"
    },
    {
      "inputs": [
        {
          "internalType": "address",
          "name": "node",
          "type": "address"
        }
      ],
      "name": "joinAsLP",
      "outputs": [],
      "stateMutability": "nonpayable",
      "type": "function"
    },
    {
      "inputs": [
        {
          "internalType": "address",
          "name": "node",
          "type": "address"
        }
      ],
      "name": "joinAsOutput",
      "outputs": [],
      "stateMutability": "nonpayable",
      "type": "function"
    },
    {
      "inputs": [],
      "name": "layersNum",
      "outputs": [
        {
          "internalType": "uint8",
          "name": "",
          "type": "uint8"
        }
      ],
      "stateMutability": "view",
      "type": "function"
    },
    {
      "inputs": [
        {
          "internalType": "uint256",
          "name": "",
          "type": "uint256"
        }
      ],
      "name": "lpNodes",
      "outputs": [
        {
          "internalType": "address",
          "name": "",
          "type": "address"
        }
      ],
      "stateMutability": "view",
      "type": "function"
    },
    {
      "inputs": [
        {
          "internalType": "address",
          "name": "",
          "type": "address"
        }
      ],
      "name": "lpNodesWeight",
      "outputs": [
        {
          "internalType": "uint256",
          "name": "initialWeight",
          "type": "uint256"
        },
        {
          "internalType": "uint256",
          "name": "investmentWeight",
          "type": "uint256"
        }
      ],
      "stateMutability": "view",
      "type": "function"
    },
    {
      "inputs": [],
      "name": "maxNodesPerLayer",
      "outputs": [
        {
          "internalType": "uint8",
          "name": "",
          "type": "uint8"
        }
      ],
      "stateMutability": "view",
      "type": "function"
    },
    {
      "inputs": [
        {
          "internalType": "address",
          "name": "_swapAddress",
          "type": "address"
        }
      ],
      "name": "modifySwapAddress",
      "outputs": [],
      "stateMutability": "nonpayable",
      "type": "function"
    },
    {
      "inputs": [],
      "name": "name",
      "outputs": [
        {
          "internalType": "string",
          "name": "",
          "type": "string"
        }
      ],
      "stateMutability": "view",
      "type": "function"
    },
    {
      "inputs": [],
      "name": "numProposals",
      "outputs": [
        {
          "internalType": "uint256",
          "name": "",
          "type": "uint256"
        }
      ],
      "stateMutability": "view",
      "type": "function"
    },
    {
      "inputs": [
        {
          "internalType": "uint256",
          "name": "",
          "type": "uint256"
        }
      ],
      "name": "outputNodes",
      "outputs": [
        {
          "internalType": "address",
          "name": "",
          "type": "address"
        }
      ],
      "stateMutability": "view",
      "type": "function"
    },
    {
      "inputs": [],
      "name": "outputNodesNum",
      "outputs": [
        {
          "internalType": "uint8",
          "name": "",
          "type": "uint8"
        }
      ],
      "stateMutability": "view",
      "type": "function"
    },
    {
      "inputs": [
        {
          "internalType": "address",
          "name": "",
          "type": "address"
        }
      ],
      "name": "outputNodesWeight",
      "outputs": [
        {
          "internalType": "uint256",
          "name": "initialWeight",
          "type": "uint256"
        },
        {
          "internalType": "uint256",
          "name": "investmentWeight",
          "type": "uint256"
        }
      ],
      "stateMutability": "view",
      "type": "function"
    },
    {
      "inputs": [],
      "name": "owner",
      "outputs": [
        {
          "internalType": "address",
          "name": "",
          "type": "address"
        }
      ],
      "stateMutability": "view",
      "type": "function"
    },
    {
      "inputs": [
        {
          "internalType": "uint256",
          "name": "",
          "type": "uint256"
        }
      ],
      "name": "proposals",
      "outputs": [
        {
          "internalType": "address",
          "name": "TokenAddress",
          "type": "address"
        },
        {
          "internalType": "uint256",
          "name": "buyTime",
          "type": "uint256"
        },
        {
          "internalType": "uint256",
          "name": "sellTime",
          "type": "uint256"
        },
        {
          "internalType": "uint256",
          "name": "buyBalance",
          "type": "uint256"
        },
        {
          "internalType": "uint256",
          "name": "sellBalance",
          "type": "uint256"
        },
        {
          "internalType": "uint256",
          "name": "inputVotersDDL",
          "type": "uint256"
        },
        {
          "internalType": "uint256",
          "name": "hiddenVotersDDL",
          "type": "uint256"
        },
        {
          "internalType": "uint256",
          "name": "outputVotersDDL",
          "type": "uint256"
        },
        {
          "internalType": "uint256",
          "name": "totalDeposit",
          "type": "uint256"
        },
        {
          "internalType": "uint256",
          "name": "totalFunds",
          "type": "uint256"
        },
        {
          "internalType": "uint256",
          "name": "decisionTimeInMins",
          "type": "uint256"
        },
        {
          "internalType": "bool",
          "name": "executed",
          "type": "bool"
        }
      ],
      "stateMutability": "view",
      "type": "function"
    },
    {
      "inputs": [],
      "name": "responsibilityOverlap",
      "outputs": [
        {
          "internalType": "bool",
          "name": "",
          "type": "bool"
        }
      ],
      "stateMutability": "view",
      "type": "function"
    },
    {
      "inputs": [
        {
          "internalType": "uint256",
          "name": "_amount",
          "type": "uint256"
        }
      ],
      "name": "stakeToGetDAOToken",
      "outputs": [],
      "stateMutability": "payable",
      "type": "function"
    },
    {
      "inputs": [
        {
          "internalType": "address",
          "name": "",
          "type": "address"
        }
      ],
      "name": "stakers",
      "outputs": [
        {
          "internalType": "uint256",
          "name": "",
          "type": "uint256"
        }
      ],
      "stateMutability": "view",
      "type": "function"
    },
    {
      "inputs": [],
      "name": "swapAddress",
      "outputs": [
        {
          "internalType": "address",
          "name": "",
          "type": "address"
        }
      ],
      "stateMutability": "view",
      "type": "function"
    },
    {
      "inputs": [
        {
          "internalType": "uint256",
          "name": "proposalIndex",
          "type": "uint256"
        },
        {
          "internalType": "enum ProposalVote.VoteOption",
          "name": "_vote",
          "type": "uint8"
        },
        {
          "internalType": "uint256",
          "name": "_deposit",
          "type": "uint256"
        },
        {
          "internalType": "string",
          "name": "_info",
          "type": "string"
        }
      ],
      "name": "voteOnAnalyzeProposal",
      "outputs": [],
      "stateMutability": "nonpayable",
      "type": "function"
    },
    {
      "inputs": [
        {
          "internalType": "uint256",
          "name": "proposalIndex",
          "type": "uint256"
        },
        {
          "internalType": "enum ProposalVote.VoteOption",
          "name": "_vote",
          "type": "uint8"
        },
        {
          "internalType": "uint256",
          "name": "_deposit",
          "type": "uint256"
        },
        {
          "internalType": "string",
          "name": "_info",
          "type": "string"
        }
      ],
      "name": "voteOnCreatingProposal",
      "outputs": [],
      "stateMutability": "nonpayable",
      "type": "function"
    },
    {
      "stateMutability": "payable",
      "type": "receive"
    }
  ],
  "bytecode": "0x60806040523480156200001157600080fd5b506040516200527338038062005273833981016040819052620000349162000330565b60008888604051620000469062000162565b62000053929190620004b4565b604051809103906000f08015801562000070573d6000803e3d6000fd5b50600b80546001600160a01b0319166001600160a01b038f161790558b51909150620000a490600c9060208e019062000170565b508951620000ba90600d9060208d019062000170565b50600e80546001600160a01b0319166001600160a01b03928316179055600f8054979091166001600160a81b031990971696909617600160a01b60ff968716021761ffff60a81b1916600160a81b9486169490940260ff60b01b191693909317600160b01b928516929092029190911761ffff60b81b1916600160b81b919093160260ff60c01b191691909117600160c01b9115159190910217905550620005239350505050565b610f4a806200432983390190565b8280546200017e90620004e6565b90600052602060002090601f016020900481019282620001a25760008555620001ed565b82601f10620001bd57805160ff1916838001178555620001ed565b82800160010185558215620001ed579182015b82811115620001ed578251825591602001919060010190620001d0565b50620001fb929150620001ff565b5090565b5b80821115620001fb576000815560010162000200565b80516001600160a01b03811681146200022e57600080fd5b919050565b634e487b7160e01b600052604160045260246000fd5b60005b83811015620002665781810151838201526020016200024c565b8381111562000276576000848401525b50505050565b600082601f8301126200028e57600080fd5b81516001600160401b0380821115620002ab57620002ab62000233565b604051601f8301601f19908116603f01168101908282118183101715620002d657620002d662000233565b81604052838152866020858801011115620002f057600080fd5b6200030384602083016020890162000249565b9695505050505050565b805160ff811681146200022e57600080fd5b805180151581146200022e57600080fd5b60008060008060008060008060008060006101608c8e0312156200035357600080fd5b6200035e8c62000216565b60208d0151909b506001600160401b038111156200037b57600080fd5b620003898e828f016200027c565b60408e0151909b5090506001600160401b03811115620003a857600080fd5b620003b68e828f016200027c565b60608e0151909a5090506001600160401b03811115620003d557600080fd5b620003e38e828f016200027c565b60808e015190995090506001600160401b038111156200040257600080fd5b620004108e828f016200027c565b9750506200042160a08d0162000216565b95506200043160c08d016200030d565b94506200044160e08d016200030d565b9350620004526101008d016200030d565b9250620004636101208d016200030d565b9150620004746101408d016200031f565b90509295989b509295989b9093969950565b60008151808452620004a081602086016020860162000249565b601f01601f19169290920160200192915050565b604081526000620004c9604083018562000486565b8281036020840152620004dd818562000486565b95945050505050565b600181811c90821680620004fb57607f821691505b602082108114156200051d57634e487b7160e01b600052602260045260246000fd5b50919050565b613df680620005336000396000f3fe60806040526004361061028c5760003560e01c80637feb4e7c1161015a578063abe96160116100c1578063e3095ce21161007a578063e3095ce21461090c578063ed3017551461092d578063ee7c21751461094d578063f00b91661461096d578063f2034d5514610982578063f9375ec11461099557600080fd5b8063abe961601461084f578063b1aee8b914610883578063b83ab38b146108a3578063c5280e1c146108c3578063dae9e379146108e4578063dde3a84a146108f757600080fd5b8063966dae0e11610113578063966dae0e1461077657806397c39c42146107965780639b8da59a146107ab5780639ec353ff146107df5780639f274a6b146107ff578063a230c5241461081f57600080fd5b80637feb4e7c146106b557806380f6d782146106d65780638da5cb5b146106f65780639121fefb146107165780639168ae7214610729578063961324cb1461075657600080fd5b806339b854d4116101fe5780635bc1e393116101b75780635bc1e393146105e15780635cf3648614610601578063621527591461063557806367b2cd071461065557806372ec551f1461067557806375c76e641461069557600080fd5b806339b854d414610518578063400e3949146105385780635110a7921461054e57806352db060914610563578063541ed521146105ac578063566aa65d146105cc57600080fd5b80631eb24d5b116102505780631eb24d5b14610435578063242e7525146104555780632458d4721461048857806326285c13146104b55780632b00e8bf146104d557806337ba9229146104f757600080fd5b8063013cf08b14610298578063021e1ecf1461038b57806305396734146103ad57806306fdde03146103e55780630e5801671461040757600080fd5b3661029357005b600080fd5b3480156102a457600080fd5b506103216102b3366004613937565b600860208190526000918252604090912080546001820154600283015460038401546004850154600586015460068701546007880154988801546009890154600a8a0154600b909a01546001600160a01b039099169a97999698959794969395929493919290919060ff168c565b604080516001600160a01b03909d168d5260208d019b909b52998b019890985260608a0196909652608089019490945260a088019290925260c087015260e08601526101008501526101208401526101408301521515610160820152610180015b60405180910390f35b34801561039757600080fd5b506103ab6103a6366004613967565b6109b5565b005b3480156103b957600080fd5b506103cd6103c8366004613937565b610a3d565b6040516001600160a01b039091168152602001610382565b3480156103f157600080fd5b506103fa610a67565b6040516103829190613982565b34801561041357600080fd5b50610427610422366004613937565b610af5565b604051908152602001610382565b34801561044157600080fd5b506103cd610450366004613937565b610cda565b34801561046157600080fd5b50600f5461047690600160a81b900460ff1681565b60405160ff9091168152602001610382565b34801561049457600080fd5b506104a86104a3366004613937565b610cea565b60405161038291906139ed565b3480156104c157600080fd5b506103ab6104d0366004613a24565b610e2f565b3480156104e157600080fd5b506104ea6110d9565b6040516103829190613a59565b34801561050357600080fd5b50600f5461047690600160b01b900460ff1681565b34801561052457600080fd5b506103ab610533366004613967565b61113b565b34801561054457600080fd5b5061042760095481565b34801561055a57600080fd5b506104ea6111c3565b34801561056f57600080fd5b5061059761057e366004613967565b6000602081905290815260409020805460019091015482565b60408051928352602083019190915201610382565b3480156105b857600080fd5b506103ab6105c7366004613967565b611223565b3480156105d857600080fd5b506103fa6112ab565b3480156105ed57600080fd5b506103cd6105fc366004613937565b6112b8565b34801561060d57600080fd5b5061059761061c366004613967565b6002602052600090815260409020805460019091015482565b34801561064157600080fd5b50600e546103cd906001600160a01b031681565b34801561066157600080fd5b506103ab610670366004613937565b6112c8565b34801561068157600080fd5b506103ab610690366004613967565b61168d565b3480156106a157600080fd5b506103ab6106b0366004613abc565b611745565b3480156106c157600080fd5b50600f5461047690600160b81b900460ff1681565b3480156106e257600080fd5b50600a546103cd906001600160a01b031681565b34801561070257600080fd5b50600b546103cd906001600160a01b031681565b6103ab610724366004613b91565b611a3b565b34801561073557600080fd5b50610427610744366004613967565b60106020526000908152604090205481565b34801561076257600080fd5b506103ab610771366004613937565b611b65565b34801561078257600080fd5b50600f546103cd906001600160a01b031681565b3480156107a257600080fd5b50610476600a81565b3480156107b757600080fd5b506105976107c6366004613967565b6003602052600090815260409020805460019091015482565b3480156107eb57600080fd5b506103cd6107fa366004613937565b611bec565b34801561080b57600080fd5b5061042761081a366004613937565b611bfc565b34801561082b57600080fd5b5061083f61083a366004613967565b611ddb565b6040519015158152602001610382565b34801561085b57600080fd5b5061059761086a366004613967565b6001602081905260009182526040909120805491015482565b34801561088f57600080fd5b506103ab61089e366004613967565b611e62565b3480156108af57600080fd5b506103ab6108be366004613937565b611eea565b3480156108cf57600080fd5b50600f5461083f90600160c01b900460ff1681565b3480156108f057600080fd5b5047610427565b34801561090357600080fd5b506104ea61206f565b34801561091857600080fd5b50600f5461047690600160a01b900460ff1681565b34801561093957600080fd5b506103ab610948366004613abc565b6120cf565b34801561095957600080fd5b50610427610968366004613bb3565b6123b9565b34801561097957600080fd5b506104ea61262f565b6103ab610990366004613937565b61268f565b3480156109a157600080fd5b506104276109b0366004613937565b61281d565b600f546001600160a01b031633146109e0576040516349a61c5f60e01b815260040160405180910390fd5b6004805460018181019092557f8a35acfbc15ff81a39ae7d344fd709f28e8600b4aa8c65c6b64bfe7fe36bd19b0180546001600160a01b039093166001600160a01b03199093168317905560009182526020829052604090912055565b60078181548110610a4d57600080fd5b6000918252602090912001546001600160a01b0316905081565b600c8054610a7490613bf5565b80601f0160208091040260200160405190810160405280929190818152602001828054610aa090613bf5565b8015610aed5780601f10610ac257610100808354040283529160200191610aed565b820191906000526020600020905b815481529060010190602001808311610ad057829003601f168201915b505050505081565b33600081815260208190526040812054909190151580610b2c57506001600160a01b03811660009081526001602052604090205415155b80610b4e57506001600160a01b03811660009081526002602052604090205415155b80610b7057506001600160a01b03811660009081526003602052604090205415155b610b8d5760405163148fe22160e11b815260040160405180910390fd5b6000805b600454811015610cd057600060048281548110610bb057610bb0613c2a565b6000918252602080832091909101548883526008825260408084206001600160a01b03909216808552600c8301909352832060010154919350919060ff166002811115610bff57610bff6139d7565b1415610c45576001600160a01b03821660009081526020818152604080832054600c850190925290912054610c349190613c56565b610c3e9085613c75565b9350610cbb565b60016001600160a01b0383166000908152600c8301602052604090206001015460ff166002811115610c7957610c796139d7565b1415610cbb576001600160a01b03821660009081526020818152604080832054600c850190925290912054610cae9190613c56565b610cb89085613cb6565b93505b50508080610cc890613cf5565b915050610b91565b5091505b50919050565b60068181548110610a4d57600080fd5b600081815260086020526040812060050154421015610d0b57506000919050565b600082815260086020526040902060060154421015610d2c57506001919050565b600082815260086020526040902060070154421015610d4d57506002919050565b600082815260086020526040902060010154421015610d6e57506003919050565b60008281526008602052604090206001015442118015610d9d5750600082815260086020526040902060030154155b15610daa57506004919050565b60008281526008602052604090206003015415801590610dda575060008281526008602052604090206002015442105b15610de757506005919050565b600082815260086020526040902060020154421115610e0857506006919050565b6000828152600860205260409020600b015460ff1615610e2a57506007919050565b919050565b6000838152600860205260409020600b0154839060ff1615610e645760405163157c3f0160e01b815260040160405180910390fd5b33600081815260026020526040902054610e9157604051636a8486e760e01b815260040160405180910390fd5b846002610e9d82610cea565b6007811115610eae57610eae6139d7565b14610ecc5760405163405cd67960e01b815260040160405180910390fd5b60008681526008602052604090819020600e5491516370a0823160e01b815233600482015290916001600160a01b031690869082906370a0823190602401602060405180830381865afa158015610f27573d6000803e3d6000fd5b505050506040513d601f19601f82011682018060405250810190610f4b9190613d10565b1015610f6a576040516332964f3d60e11b815260040160405180910390fd5b336000908152600c8301602052604090206002018054610f8990613bf5565b159050610fa95760405163650d798f60e01b815260040160405180910390fd5b6002876002811115610fbd57610fbd6139d7565b14610fe85760008611610fe3576040516332964f3d60e11b815260040160405180910390fd5b611007565b8515611007576040516362787a0360e01b815260040160405180910390fd5b6040516323b872dd60e01b81526001600160a01b038216906323b872dd9061103790339030908b90600401613d29565b6020604051808303816000875af1158015611056573d6000803e3d6000fd5b505050506040513d601f19601f8201168201806040525081019061107a9190613d4d565b508582600801600082825461108f9190613d6f565b9091555050336000908152600e83016020526040902086815560019081018054899260ff19909116908360028111156110ca576110ca6139d7565b02179055505050505050505050565b6060600580548060200260200160405190810160405280929190818152602001828054801561113157602002820191906000526020600020905b81546001600160a01b03168152600190910190602001808311611113575b5050505050905090565b600f546001600160a01b03163314611166576040516349a61c5f60e01b815260040160405180910390fd5b6007805460018181019092557fa66cc928b5edb82af9bd49922954155ab7b0942694bea4ce44661d9a8736c6880180546001600160a01b039093166001600160a01b03199093168317905560009182526003602052604090912055565b60606006805480602002602001604051908101604052809291908181526020018280548015611131576020028201919060005260206000209081546001600160a01b03168152600190910190602001808311611113575050505050905090565b600f546001600160a01b0316331461124e576040516349a61c5f60e01b815260040160405180910390fd5b6006805460018181019092557ff652222313e28459528d920b65115c16c04f3efc82aaedc97be59f3f377c0d3f0180546001600160a01b039093166001600160a01b03199093168317905560009182526002602052604090912055565b600d8054610a7490613bf5565b60058181548110610a4d57600080fd5b6000818152600860205260409020600b0154819060ff16156112fd5760405163157c3f0160e01b815260040160405180910390fd5b6000828152600860205260409020600281015442101561133057604051636df150b360e01b815260040160405180910390fd5b8054611344906001600160a01b03166129fc565b600b8101805460ff191660011790554760048201819055600382015411156114fa5760008160040154826003015461137c9190613d87565b90506114f460048054806020026020016040519081016040528092919081815260200182805480156113d757602002820191906000526020600020905b81546001600160a01b031681526001909101906020018083116113b9575b5050505050600580548060200260200160405190810160405280929190818152602001828054801561143257602002820191906000526020600020905b81546001600160a01b03168152600190910190602001808311611414575b5050505050600680548060200260200160405190810160405280929190818152602001828054801561148d57602002820191906000526020600020905b81546001600160a01b0316815260019091019060200180831161146f575b505050505060078054806020026020016040519081016040528092919081815260200182805480156114e857602002820191906000526020600020905b81546001600160a01b031681526001909101906020018083116114ca575b50505050508589612b42565b50505050565b6000816003015482600401546115109190613d87565b90506114f4600480548060200260200160405190810160405280929190818152602001828054801561156b57602002820191906000526020600020905b81546001600160a01b0316815260019091019060200180831161154d575b505050505060058054806020026020016040519081016040528092919081815260200182805480156115c657602002820191906000526020600020905b81546001600160a01b031681526001909101906020018083116115a8575b5050505050600680548060200260200160405190810160405280929190818152602001828054801561162157602002820191906000526020600020905b81546001600160a01b03168152600190910190602001808311611603575b5050505050600780548060200260200160405190810160405280929190818152602001828054801561167c57602002820191906000526020600020905b81546001600160a01b0316815260019091019060200180831161165e575b505050505085896131df565b505050565b336000818152602081905260409020541515806116c157506001600160a01b03811660009081526001602052604090205415155b806116e357506001600160a01b03811660009081526002602052604090205415155b8061170557506001600160a01b03811660009081526003602052604090205415155b6117225760405163148fe22160e11b815260040160405180910390fd5b50600a80546001600160a01b0319166001600160a01b0392909216919091179055565b6000848152600860205260409020600b0154849060ff161561177a5760405163157c3f0160e01b815260040160405180910390fd5b336000818152602081905260409020546117a757604051636ab35ba360e01b815260040160405180910390fd5b8560006117b382610cea565b60078111156117c4576117c46139d7565b146117e2576040516362d0a16d60e01b815260040160405180910390fd5b60008781526008602052604090819020600e5491516370a0823160e01b815233600482015290916001600160a01b031690879082906370a0823190602401602060405180830381865afa15801561183d573d6000803e3d6000fd5b505050506040513d601f19601f820116820180604052508101906118619190613d10565b1015611880576040516332964f3d60e11b815260040160405180910390fd5b336000908152600c830160205260409020600201805461189f90613bf5565b1590506118bf5760405163650d798f60e01b815260040160405180910390fd5b60008651116118e157604051633c43731560e21b815260040160405180910390fd5b60028860028111156118f5576118f56139d7565b14611920576000871161191b576040516332964f3d60e11b815260040160405180910390fd5b61193f565b861561193f576040516362787a0360e01b815260040160405180910390fd5b6040516323b872dd60e01b81526001600160a01b038216906323b872dd9061196f90339030908c90600401613d29565b6020604051808303816000875af115801561198e573d6000803e3d6000fd5b505050506040513d601f19601f820116820180604052508101906119b29190613d4d565b50868260080160008282546119c79190613d6f565b9091555050336000908152600c830160205260409020878155600190810180548a9260ff1990911690836002811115611a0257611a026139d7565b0217905550336000908152600c8301602090815260409091208751611a2f9260029092019189019061389e565b50505050505050505050565b6000828152600860205260409020600b0154829060ff1615611a705760405163157c3f0160e01b815260040160405180910390fd5b813331811115611a93576040516315c244af60e31b815260040160405180910390fd5b33600081815260036020526040902054611ac05760405163f474eaef60e01b815260040160405180910390fd5b600085815260086020526040902060030154859015611af25760405163539b5c5960e01b815260040160405180910390fd5b60008681526008602052604080822090519091309188156108fc0291899190818181858888f19350505050158015611b2e573d6000803e3d6000fd5b50336000908152600f820160205260408120879055600982018054889290611b57908490613d6f565b909155505050505050505050565b6000818152600860205260409020600b0154819060ff1615611b9a5760405163157c3f0160e01b815260040160405180910390fd5b60008281526008602052604090206001810154421015611bcd57604051636df150b360e01b815260040160405180910390fd5b8054611be1906001600160a01b03166137f4565b476003909101555050565b60048181548110610a4d57600080fd5b33600081815260208190526040812054909190151580611c3357506001600160a01b03811660009081526001602052604090205415155b80611c5557506001600160a01b03811660009081526002602052604090205415155b80611c7757506001600160a01b03811660009081526003602052604090205415155b611c945760405163148fe22160e11b815260040160405180910390fd5b6000805b600554811015610cd057600060058281548110611cb757611cb7613c2a565b6000918252602080832091909101548883526008825260408084206001600160a01b03909216808552600d8301909352832060010154919350919060ff166002811115611d0657611d066139d7565b1415611d4e576001600160a01b038216600090815260016020908152604080832054600d850190925290912054611d3d9190613c56565b611d479085613c75565b9350611dc6565b60016001600160a01b0383166000908152600d8301602052604090206001015460ff166002811115611d8257611d826139d7565b1415611dc6576001600160a01b038216600090815260016020908152604080832054600d850190925290912054611db99190613c56565b611dc39085613cb6565b93505b50508080611dd390613cf5565b915050611c98565b6001600160a01b038116600090815260208190526040812054151580611e1857506001600160a01b03821660009081526001602052604090205415155b80611e3a57506001600160a01b03821660009081526002602052604090205415155b80611e5c57506001600160a01b03821660009081526003602052604090205415155b92915050565b600f546001600160a01b03163314611e8d576040516349a61c5f60e01b815260040160405180910390fd5b6005805460018181019092557f036b6384b5eca791c62761152d0c79bb0604c104a5fb6f4eb0703f3154bb3db00180546001600160a01b039093166001600160a01b03199093168317905560009182526020819052604090912055565b33600081815260208190526040902054151580611f1e57506001600160a01b03811660009081526001602052604090205415155b80611f4057506001600160a01b03811660009081526002602052604090205415155b80611f6257506001600160a01b03811660009081526003602052604090205415155b611f7f5760405163148fe22160e11b815260040160405180910390fd5b336000908152601060205260409020548290811115611fb1576040516301c20a2360e41b815260040160405180910390fd5b600e546001600160a01b03166379cc679033611fd086620186a0613826565b6040516001600160e01b031960e085901b1681526001600160a01b0390921660048301526024820152604401600060405180830381600087803b15801561201657600080fd5b505af115801561202a573d6000803e3d6000fd5b5050336000908152601060205260408120805487945090925061204e908490613d87565b9091555061168890503361206a85670de0b6b3a7640000613826565b613839565b60606004805480602002602001604051908101604052809291908181526020018280548015611131576020028201919060005260206000209081546001600160a01b03168152600190910190602001808311611113575050505050905090565b6000848152600860205260409020600b0154849060ff16156121045760405163157c3f0160e01b815260040160405180910390fd5b3360008181526001602052604090205461213157604051630267f70960e51b815260040160405180910390fd5b85600161213d82610cea565b600781111561214e5761214e6139d7565b1461216c5760405163735c2c2760e01b815260040160405180910390fd5b60008781526008602052604090819020600e5491516370a0823160e01b815233600482015290916001600160a01b031690879082906370a0823190602401602060405180830381865afa1580156121c7573d6000803e3d6000fd5b505050506040513d601f19601f820116820180604052508101906121eb9190613d10565b101561220a576040516332964f3d60e11b815260040160405180910390fd5b336000908152600c830160205260409020600201805461222990613bf5565b1590506122495760405163650d798f60e01b815260040160405180910390fd5b600086511161226b57604051633c43731560e21b815260040160405180910390fd5b600288600281111561227f5761227f6139d7565b146122aa57600087116122a5576040516332964f3d60e11b815260040160405180910390fd5b6122c9565b86156122c9576040516362787a0360e01b815260040160405180910390fd5b6040516323b872dd60e01b81526001600160a01b038216906323b872dd906122f990339030908c90600401613d29565b6020604051808303816000875af1158015612318573d6000803e3d6000fd5b505050506040513d601f19601f8201168201806040525081019061233c9190613d4d565b50868260080160008282546123519190613d6f565b9091555050336000908152600d830160205260409020878155600190810180548a9260ff199091169083600281111561238c5761238c6139d7565b0217905550336000908152600d8301602090815260409091208751611a2f9260029092019189019061389e565b336000818152602081905260408120549091906123e957604051636ab35ba360e01b815260040160405180910390fd5b600e546040516370a0823160e01b81523360048201526001600160a01b0390911690879082906370a0823190602401602060405180830381865afa158015612435573d6000803e3d6000fd5b505050506040513d601f19601f820116820180604052508101906124599190613d10565b10806124655750600a87105b15612483576040516332964f3d60e11b815260040160405180910390fd5b6040516323b872dd60e01b81526001600160a01b038216906323b872dd906124b390339030908c90600401613d29565b6020604051808303816000875af11580156124d2573d6000803e3d6000fd5b505050506040513d601f19601f820116820180604052508101906124f69190613d4d565b506009546000908152600860208190526040822080546001600160a01b0319166001600160a01b038c16178155908101805491928a92612537908490613d6f565b9091555050600a810185905561254d8542613d6f565b6005820181905561255f908690613d6f565b60068201819055612571908690613d6f565b60078201556001808201889055600b8201805460ff1990811690915560028301889055336000908152600c8401602052604081208b815583018054919390929190911690830217905550604080518082018252600681526543726561746560d01b6020808301918252336000908152600c86019091529290922090516125fd926002909201919061389e565b506009805490600061260e83613cf5565b919050555060016009546126229190613d87565b9998505050505050505050565b60606007805480602002602001604051908101604052809291908181526020018280548015611131576020028201919060005260206000209081546001600160a01b03168152600190910190602001808311611113575050505050905090565b336000818152602081905260409020541515806126c357506001600160a01b03811660009081526001602052604090205415155b806126e557506001600160a01b03811660009081526002602052604090205415155b8061270757506001600160a01b03811660009081526003602052604090205415155b6127245760405163148fe22160e11b815260040160405180910390fd5b813331811115612747576040516315c244af60e31b815260040160405180910390fd5b604051309084156108fc029085906000818181858888f19350505050158015612774573d6000803e3d6000fd5b503360009081526010602052604081208054859290612794908490613d6f565b9091555050600e546001600160a01b031663449a52f8336127ba8664e8d4a51000613892565b6040516001600160e01b031960e085901b1681526001600160a01b0390921660048301526024820152604401600060405180830381600087803b15801561280057600080fd5b505af1158015612814573d6000803e3d6000fd5b50505050505050565b3360008181526020819052604081205490919015158061285457506001600160a01b03811660009081526001602052604090205415155b8061287657506001600160a01b03811660009081526002602052604090205415155b8061289857506001600160a01b03811660009081526003602052604090205415155b6128b55760405163148fe22160e11b815260040160405180910390fd5b6000805b600654811015610cd0576000600682815481106128d8576128d8613c2a565b6000918252602080832091909101548883526008825260408084206001600160a01b03909216808552600e8301909352832060010154919350919060ff166002811115612927576129276139d7565b141561296f576001600160a01b038216600090815260026020908152604080832054600e85019092529091205461295e9190613c56565b6129689085613c75565b93506129e7565b60016001600160a01b0383166000908152600e8301602052604090206001015460ff1660028111156129a3576129a36139d7565b14156129e7576001600160a01b038216600090815260026020908152604080832054600e8501909252909120546129da9190613c56565b6129e49085613cb6565b93505b505080806129f490613cf5565b9150506128b9565b6040516370a0823160e01b815233600482018190526001600160a01b0383169163095ea7b3919083906370a0823190602401602060405180830381865afa158015612a4b573d6000803e3d6000fd5b505050506040513d601f19601f82011682018060405250810190612a6f9190613d10565b6040516001600160e01b031960e085901b1681526001600160a01b03909216600483015260248201526044016020604051808303816000875af1158015612aba573d6000803e3d6000fd5b505050506040513d601f19601f82011682018060405250810190612ade9190613d4d565b50600a546040516337a9e0b960e01b81526001600160a01b038381166004830152909116906337a9e0b9906024015b600060405180830381600087803b158015612b2757600080fd5b505af1158015612b3b573d6000803e3d6000fd5b5050505050565b6000818152600860205260408120905b8751811015612d6757600082600c0160008a8481518110612b7557612b75613c2a565b60200260200101516001600160a01b03166001600160a01b03168152602001908152602001600020604051806060016040529081600082015481526020016001820160009054906101000a900460ff166002811115612bd657612bd66139d7565b6002811115612be757612be76139d7565b8152602001600282018054612bfb90613bf5565b80601f0160208091040260200160405190810160405280929190818152602001828054612c2790613bf5565b8015612c745780601f10612c4957610100808354040283529160200191612c74565b820191906000526020600020905b815481529060010190602001808311612c5757829003601f168201915b50505091909252505081519192505015801590612ca65750600181602001516002811115612ca457612ca46139d7565b145b15612d5457600f5489516001600160a01b0390911690636c5d1b319030908c9086908110612cd657612cd6613c2a565b6020026020010151612d038760080154612cfd87600001518c61382690919063ffffffff16565b90613892565b6040518463ffffffff1660e01b8152600401612d2193929190613d29565b600060405180830381600087803b158015612d3b57600080fd5b505af1158015612d4f573d6000803e3d6000fd5b505050505b5080612d5f81613cf5565b915050612b52565b5060005b8651811015612f135781600d016000888381518110612d8c57612d8c613c2a565b60200260200101516001600160a01b03166001600160a01b0316815260200190815260200160002060000154600014158015612e1a5750600182600d016000898481518110612ddd57612ddd613c2a565b6020908102919091018101516001600160a01b031682528101919091526040016000206001015460ff166002811115612e1857612e186139d7565b145b15612f0157600f5487516001600160a01b0390911690636c5d1b319030908a9085908110612e4a57612e4a613c2a565b6020026020010151612eb08660080154612cfd88600d0160008f8a81518110612e7557612e75613c2a565b60200260200101516001600160a01b03166001600160a01b03168152602001908152602001600020600001548b61382690919063ffffffff16565b6040518463ffffffff1660e01b8152600401612ece93929190613d29565b600060405180830381600087803b158015612ee857600080fd5b505af1158015612efc573d6000803e3d6000fd5b505050505b80612f0b81613cf5565b915050612d6b565b5060005b85518110156130845781600e016000878381518110612f3857612f38613c2a565b60200260200101516001600160a01b03166001600160a01b0316815260200190815260200160002060000154600014158015612fc65750600182600e016000888481518110612f8957612f89613c2a565b6020908102919091018101516001600160a01b031682528101919091526040016000206001015460ff166002811115612fc457612fc46139d7565b145b1561307257600f5486516001600160a01b0390911690636c5d1b31903090899085908110612ff657612ff6613c2a565b60200260200101516130218660080154612cfd88600e0160008e8a81518110612e7557612e75613c2a565b6040518463ffffffff1660e01b815260040161303f93929190613d29565b600060405180830381600087803b15801561305957600080fd5b505af115801561306d573d6000803e3d6000fd5b505050505b8061307c81613cf5565b915050612f17565b5060005b84518110156131d55781600f0160008683815181106130a9576130a9613c2a565b60200260200101516001600160a01b03166001600160a01b03168152602001908152602001600020546000146131c357600f5485516001600160a01b0390911690636c5d1b3190309088908590811061310457613104613c2a565b6020026020010151613172606461316c8860090154612cfd8a600f0160008f8c8151811061313457613134613c2a565b60200260200101516001600160a01b03166001600160a01b03168152602001908152602001600020548d61382690919063ffffffff16565b90613826565b6040518463ffffffff1660e01b815260040161319093929190613d29565b600060405180830381600087803b1580156131aa57600080fd5b505af11580156131be573d6000803e3d6000fd5b505050505b806131cd81613cf5565b915050613088565b5050505050505050565b6000818152600860205260408120905b87518110156133fe57600082600c0160008a848151811061321257613212613c2a565b60200260200101516001600160a01b03166001600160a01b03168152602001908152602001600020604051806060016040529081600082015481526020016001820160009054906101000a900460ff166002811115613273576132736139d7565b6002811115613284576132846139d7565b815260200160028201805461329890613bf5565b80601f01602080910402602001604051908101604052809291908181526020018280546132c490613bf5565b80156133115780601f106132e657610100808354040283529160200191613311565b820191906000526020600020905b8154815290600101906020018083116132f457829003601f168201915b505050919092525050815191925050158015906133435750600081602001516002811115613341576133416139d7565b145b156133eb57600f5489516001600160a01b039091169063b68557b49030908c908690811061337357613373613c2a565b602002602001015161339a8760080154612cfd87600001518c61382690919063ffffffff16565b6040518463ffffffff1660e01b81526004016133b893929190613d29565b600060405180830381600087803b1580156133d257600080fd5b505af11580156133e6573d6000803e3d6000fd5b505050505b50806133f681613cf5565b9150506131ef565b5060005b865181101561356f5781600d01600088838151811061342357613423613c2a565b60200260200101516001600160a01b03166001600160a01b03168152602001908152602001600020600001546000141580156134b15750600082600d01600089848151811061347457613474613c2a565b6020908102919091018101516001600160a01b031682528101919091526040016000206001015460ff1660028111156134af576134af6139d7565b145b1561355d57600f5487516001600160a01b039091169063b68557b49030908a90859081106134e1576134e1613c2a565b602002602001015161350c8660080154612cfd88600d0160008f8a81518110612e7557612e75613c2a565b6040518463ffffffff1660e01b815260040161352a93929190613d29565b600060405180830381600087803b15801561354457600080fd5b505af1158015613558573d6000803e3d6000fd5b505050505b8061356781613cf5565b915050613402565b5060005b85518110156136e05781600e01600087838151811061359457613594613c2a565b60200260200101516001600160a01b03166001600160a01b03168152602001908152602001600020600001546000141580156136225750600082600e0160008884815181106135e5576135e5613c2a565b6020908102919091018101516001600160a01b031682528101919091526040016000206001015460ff166002811115613620576136206139d7565b145b156136ce57600f5486516001600160a01b039091169063b68557b490309089908590811061365257613652613c2a565b602002602001015161367d8660080154612cfd88600e0160008e8a81518110612e7557612e75613c2a565b6040518463ffffffff1660e01b815260040161369b93929190613d29565b600060405180830381600087803b1580156136b557600080fd5b505af11580156136c9573d6000803e3d6000fd5b505050505b806136d881613cf5565b915050613573565b5060005b84518110156131d55781600f01600086838151811061370557613705613c2a565b60200260200101516001600160a01b03166001600160a01b03168152602001908152602001600020546000146137e257600f5485516001600160a01b039091169063b68557b490309088908590811061376057613760613c2a565b60200260200101516137916103e861316c8860090154612cfd8a600f0160008f8c8151811061313457613134613c2a565b6040518463ffffffff1660e01b81526004016137af93929190613d29565b600060405180830381600087803b1580156137c957600080fd5b505af11580156137dd573d6000803e3d6000fd5b505050505b806137ec81613cf5565b9150506136e4565b600a546040516337a9e0b960e01b81526001600160a01b038381166004830152909116906337a9e0b990602401612b0d565b60006138328284613c56565b9392505050565b80333181111561385c576040516315c244af60e31b815260040160405180910390fd5b6040516001600160a01b0384169083156108fc029084906000818181858888f193505050501580156114f4573d6000803e3d6000fd5b60006138328284613d9e565b8280546138aa90613bf5565b90600052602060002090601f0160209004810192826138cc5760008555613912565b82601f106138e557805160ff1916838001178555613912565b82800160010185558215613912579182015b828111156139125782518255916020019190600101906138f7565b5061391e929150613922565b5090565b5b8082111561391e5760008155600101613923565b60006020828403121561394957600080fd5b5035919050565b80356001600160a01b0381168114610e2a57600080fd5b60006020828403121561397957600080fd5b61383282613950565b600060208083528351808285015260005b818110156139af57858101830151858201604001528201613993565b818111156139c1576000604083870101525b50601f01601f1916929092016040019392505050565b634e487b7160e01b600052602160045260246000fd5b6020810160088310613a0f57634e487b7160e01b600052602160045260246000fd5b91905290565b803560038110610e2a57600080fd5b600080600060608486031215613a3957600080fd5b83359250613a4960208501613a15565b9150604084013590509250925092565b6020808252825182820181905260009190848201906040850190845b81811015613a9a5783516001600160a01b031683529284019291840191600101613a75565b50909695505050505050565b634e487b7160e01b600052604160045260246000fd5b60008060008060808587031215613ad257600080fd5b84359350613ae260208601613a15565b925060408501359150606085013567ffffffffffffffff80821115613b0657600080fd5b818701915087601f830112613b1a57600080fd5b813581811115613b2c57613b2c613aa6565b604051601f8201601f19908116603f01168101908382118183101715613b5457613b54613aa6565b816040528281528a6020848701011115613b6d57600080fd5b82602086016020830137600060208483010152809550505050505092959194509250565b60008060408385031215613ba457600080fd5b50508035926020909101359150565b600080600080600060a08688031215613bcb57600080fd5b613bd486613950565b97602087013597506040870135966060810135965060800135945092505050565b600181811c90821680613c0957607f821691505b60208210811415610cd457634e487b7160e01b600052602260045260246000fd5b634e487b7160e01b600052603260045260246000fd5b634e487b7160e01b600052601160045260246000fd5b6000816000190483118215151615613c7057613c70613c40565b500290565b600080821280156001600160ff1b0384900385131615613c9757613c97613c40565b600160ff1b8390038412811615613cb057613cb0613c40565b50500190565b60008083128015600160ff1b850184121615613cd457613cd4613c40565b6001600160ff1b0384018313811615613cef57613cef613c40565b50500390565b6000600019821415613d0957613d09613c40565b5060010190565b600060208284031215613d2257600080fd5b5051919050565b6001600160a01b039384168152919092166020820152604081019190915260600190565b600060208284031215613d5f57600080fd5b8151801515811461383257600080fd5b60008219821115613d8257613d82613c40565b500190565b600082821015613d9957613d99613c40565b500390565b600082613dbb57634e487b7160e01b600052601260045260246000fd5b50049056fea2646970667358221220957a7e6212abc225cfd494661b75fa39ebcb91fed2f8d8854a7f72b02022d5c064736f6c634300080c003360806040523480156200001157600080fd5b5060405162000f4a38038062000f4a8339810160408190526200003491620001f4565b8151829082906200004d90600390602085019062000081565b5080516200006390600490602084019062000081565b5050600580546001600160a01b03191633179055506200029b915050565b8280546200008f906200025e565b90600052602060002090601f016020900481019282620000b35760008555620000fe565b82601f10620000ce57805160ff1916838001178555620000fe565b82800160010185558215620000fe579182015b82811115620000fe578251825591602001919060010190620000e1565b506200010c92915062000110565b5090565b5b808211156200010c576000815560010162000111565b634e487b7160e01b600052604160045260246000fd5b600082601f8301126200014f57600080fd5b81516001600160401b03808211156200016c576200016c62000127565b604051601f8301601f19908116603f0116810190828211818310171562000197576200019762000127565b81604052838152602092508683858801011115620001b457600080fd5b600091505b83821015620001d85785820183015181830184015290820190620001b9565b83821115620001ea5760008385830101525b9695505050505050565b600080604083850312156200020857600080fd5b82516001600160401b03808211156200022057600080fd5b6200022e868387016200013d565b935060208501519150808211156200024557600080fd5b5062000254858286016200013d565b9150509250929050565b600181811c908216806200027357607f821691505b602082108114156200029557634e487b7160e01b600052602260045260246000fd5b50919050565b610c9f80620002ab6000396000f3fe608060405234801561001057600080fd5b50600436106100f55760003560e01c8063449a52f811610097578063a457c2d711610066578063a457c2d7146101ee578063a9059cbb14610201578063d392eab114610214578063dd62ed3e1461023f57600080fd5b8063449a52f81461019757806370a08231146101aa57806379cc6790146101d357806395d89b41146101e657600080fd5b806323b872dd116100d357806323b872dd1461014d578063313ce56714610160578063395093511461016f57806342966c681461018257600080fd5b806306fdde03146100fa578063095ea7b31461011857806318160ddd1461013b575b600080fd5b610102610278565b60405161010f9190610aa4565b60405180910390f35b61012b610126366004610b15565b61030a565b604051901515815260200161010f565b6002545b60405190815260200161010f565b61012b61015b366004610b3f565b610322565b6040516012815260200161010f565b61012b61017d366004610b15565b610362565b610195610190366004610b7b565b6103a1565b005b6101956101a5366004610b15565b610402565b61013f6101b8366004610b94565b6001600160a01b031660009081526020819052604090205490565b6101956101e1366004610b15565b61045b565b6101026104d1565b61012b6101fc366004610b15565b6104e0565b61012b61020f366004610b15565b61057d565b600554610227906001600160a01b031681565b6040516001600160a01b03909116815260200161010f565b61013f61024d366004610bb6565b6001600160a01b03918216600090815260016020908152604080832093909416825291909152205490565b60606003805461028790610be9565b80601f01602080910402602001604051908101604052809291908181526020018280546102b390610be9565b80156103005780601f106102d557610100808354040283529160200191610300565b820191906000526020600020905b8154815290600101906020018083116102e357829003601f168201915b5050505050905090565b60003361031881858561058b565b5060019392505050565b6005546000906001600160a01b031633146103575760405163744f405960e11b81523360048201526024015b60405180910390fd5b6103188484846106b0565b3360008181526001602090815260408083206001600160a01b0387168452909152812054909190610318908290869061039c908790610c3a565b61058b565b336000908152602081905260409020548111156103f55760405162461bcd60e51b81526020600482015260126024820152716e6f7420656e6f7567682062616c616e636560701b604482015260640161034e565b6103ff338261087f565b50565b6005546001600160a01b0316331461042f5760405163744f405960e11b815233600482015260240161034e565b8061044d576040516314428aa360e31b815260040160405180910390fd5b61045782826109c5565b5050565b6005546001600160a01b031633146104885760405163744f405960e11b815233600482015260240161034e565b806104a8836001600160a01b031660009081526020819052604090205490565b10156104c75760405163569d45cf60e11b815260040160405180910390fd5b610457828261087f565b60606004805461028790610be9565b3360008181526001602090815260408083206001600160a01b0387168452909152812054909190838110156105655760405162461bcd60e51b815260206004820152602560248201527f45524332303a2064656372656173656420616c6c6f77616e63652062656c6f77604482015264207a65726f60d81b606482015260840161034e565b610572828686840361058b565b506001949350505050565b6000336103188185856106b0565b6001600160a01b0383166105ed5760405162461bcd60e51b8152602060048201526024808201527f45524332303a20617070726f76652066726f6d20746865207a65726f206164646044820152637265737360e01b606482015260840161034e565b6001600160a01b03821661064e5760405162461bcd60e51b815260206004820152602260248201527f45524332303a20617070726f766520746f20746865207a65726f206164647265604482015261737360f01b606482015260840161034e565b6001600160a01b0383811660008181526001602090815260408083209487168084529482529182902085905590518481527f8c5be1e5ebec7d5bd14f71427d1e84f3dd0314c0f7b2291e5b200ac8c7c3b92591015b60405180910390a3505050565b6001600160a01b0383166107145760405162461bcd60e51b815260206004820152602560248201527f45524332303a207472616e736665722066726f6d20746865207a65726f206164604482015264647265737360d81b606482015260840161034e565b6001600160a01b0382166107765760405162461bcd60e51b815260206004820152602360248201527f45524332303a207472616e7366657220746f20746865207a65726f206164647260448201526265737360e81b606482015260840161034e565b6001600160a01b038316600090815260208190526040902054818110156107ee5760405162461bcd60e51b815260206004820152602660248201527f45524332303a207472616e7366657220616d6f756e7420657863656564732062604482015265616c616e636560d01b606482015260840161034e565b6001600160a01b03808516600090815260208190526040808220858503905591851681529081208054849290610825908490610c3a565b92505081905550826001600160a01b0316846001600160a01b03167fddf252ad1be2c89b69c2b068fc378daa952ba7f163c4a11628f55a4df523b3ef8460405161087191815260200190565b60405180910390a350505050565b6001600160a01b0382166108df5760405162461bcd60e51b815260206004820152602160248201527f45524332303a206275726e2066726f6d20746865207a65726f206164647265736044820152607360f81b606482015260840161034e565b6001600160a01b038216600090815260208190526040902054818110156109535760405162461bcd60e51b815260206004820152602260248201527f45524332303a206275726e20616d6f756e7420657863656564732062616c616e604482015261636560f01b606482015260840161034e565b6001600160a01b0383166000908152602081905260408120838303905560028054849290610982908490610c52565b90915550506040518281526000906001600160a01b038516907fddf252ad1be2c89b69c2b068fc378daa952ba7f163c4a11628f55a4df523b3ef906020016106a3565b6001600160a01b038216610a1b5760405162461bcd60e51b815260206004820152601f60248201527f45524332303a206d696e7420746f20746865207a65726f206164647265737300604482015260640161034e565b8060026000828254610a2d9190610c3a565b90915550506001600160a01b03821660009081526020819052604081208054839290610a5a908490610c3a565b90915550506040518181526001600160a01b038316906000907fddf252ad1be2c89b69c2b068fc378daa952ba7f163c4a11628f55a4df523b3ef9060200160405180910390a35050565b600060208083528351808285015260005b81811015610ad157858101830151858201604001528201610ab5565b81811115610ae3576000604083870101525b50601f01601f1916929092016040019392505050565b80356001600160a01b0381168114610b1057600080fd5b919050565b60008060408385031215610b2857600080fd5b610b3183610af9565b946020939093013593505050565b600080600060608486031215610b5457600080fd5b610b5d84610af9565b9250610b6b60208501610af9565b9150604084013590509250925092565b600060208284031215610b8d57600080fd5b5035919050565b600060208284031215610ba657600080fd5b610baf82610af9565b9392505050565b60008060408385031215610bc957600080fd5b610bd283610af9565b9150610be060208401610af9565b90509250929050565b600181811c90821680610bfd57607f821691505b60208210811415610c1e57634e487b7160e01b600052602260045260246000fd5b50919050565b634e487b7160e01b600052601160045260246000fd5b60008219821115610c4d57610c4d610c24565b500190565b600082821015610c6457610c64610c24565b50039056fea264697066735822122038dce284192696e26cae5780b8e6228045b92df41ac0a59d0293bd5c3921786964736f6c634300080c0033",
  "linkReferences": {},
  "deployedLinkReferences": {}
}